{
  "contractName": "Oracle",
  "abi": [
    {
      "anonymous": false,
      "inputs": [
        {
          "indexed": false,
          "internalType": "address",
          "name": "caller",
          "type": "address"
        },
        {
          "indexed": false,
          "internalType": "string",
          "name": "currencySymbol",
          "type": "string"
        },
        {
          "indexed": false,
          "internalType": "uint256",
          "name": "requestTime",
          "type": "uint256"
        }
      ],
      "name": "RequestPrice",
      "type": "event"
    },
    {
      "anonymous": false,
      "inputs": [
        {
          "indexed": false,
          "internalType": "address",
          "name": "caller",
          "type": "address"
        },
        {
          "indexed": false,
          "internalType": "uint256",
          "name": "toNumber",
          "type": "uint256"
        },
        {
          "indexed": false,
          "internalType": "uint256",
          "name": "count",
          "type": "uint256"
        },
        {
          "indexed": false,
          "internalType": "uint256",
          "name": "requestTime",
          "type": "uint256"
        }
      ],
      "name": "RequestVRF",
      "type": "event"
    },
    {
      "inputs": [
        {
          "internalType": "string",
          "name": "_symbol",
          "type": "string"
        }
      ],
      "name": "requestPrice",
      "outputs": [
        {
          "internalType": "bool",
          "name": "status",
          "type": "bool"
        }
      ],
      "stateMutability": "nonpayable",
      "type": "function"
    },
    {
      "inputs": [
        {
          "internalType": "uint256",
          "name": "_toNumber",
          "type": "uint256"
        },
        {
          "internalType": "uint256",
          "name": "_count",
          "type": "uint256"
        }
      ],
      "name": "requestVRF",
      "outputs": [
        {
          "internalType": "bool",
          "name": "status",
          "type": "bool"
        }
      ],
      "stateMutability": "nonpayable",
      "type": "function"
    }
  ],
  "bytecode": "0x608060405234801561001057600080fd5b5061078b806100206000396000f3fe608060405234801561001057600080fd5b50600436106100365760003560e01c80632c4008ea1461003b578063d4fe6bd01461006b575b600080fd5b6100556004803603810190610050919061034a565b61009b565b60405161006291906103a5565b60405180910390f35b61008560048036038101906100809190610425565b6101f3565b60405161009291906103a5565b60405180910390f35b600080151560008054906101000a900460ff161515146100f0576040517f08c379a00000000000000000000000000000000000000000000000000000000081526004016100e7906104cf565b60405180910390fd5b60016000806101000a81548160ff021916908315150217905550600a83101561014e576040517f08c379a00000000000000000000000000000000000000000000000000000000081526004016101459061053b565b60405180910390fd5b6001821015610192576040517f08c379a0000000000000000000000000000000000000000000000000000000008152600401610189906105a7565b60405180910390fd5b7f91d620789599eca5138c8533d4420bdcc04fb96d7e120e7b41b4c8e8f39dbf0e338484426040516101c79493929190610617565b60405180910390a16001905060008060006101000a81548160ff02191690831515021790555092915050565b600080151560008054906101000a900460ff16151514610248576040517f08c379a000000000000000000000000000000000000000000000000000000000815260040161023f906104cf565b60405180910390fd5b60016000806101000a81548160ff02191690831515021790555060038383905010156102a9576040517f08c379a00000000000000000000000000000000000000000000000000000000081526004016102a0906106a8565b60405180910390fd5b7f229f107e63ac699a1c3c7da64f8fe058e0fad479130c489f254864f23c56f44d338484426040516102de9493929190610715565b60405180910390a16001905060008060006101000a81548160ff02191690831515021790555092915050565b600080fd5b600080fd5b6000819050919050565b61032781610314565b811461033257600080fd5b50565b6000813590506103448161031e565b92915050565b600080604083850312156103615761036061030a565b5b600061036f85828601610335565b925050602061038085828601610335565b9150509250929050565b60008115159050919050565b61039f8161038a565b82525050565b60006020820190506103ba6000830184610396565b92915050565b600080fd5b600080fd5b600080fd5b60008083601f8401126103e5576103e46103c0565b5b8235905067ffffffffffffffff811115610402576104016103c5565b5b60208301915083600182028301111561041e5761041d6103ca565b5b9250929050565b6000806020838503121561043c5761043b61030a565b5b600083013567ffffffffffffffff81111561045a5761045961030f565b5b610466858286016103cf565b92509250509250929050565b600082825260208201905092915050565b7f4c6f636b65640000000000000000000000000000000000000000000000000000600082015250565b60006104b9600683610472565b91506104c482610483565b602082019050919050565b600060208201905081810360008301526104e8816104ac565b9050919050565b7f5f746f4e756d626572206d757374206265203e3d203130000000000000000000600082015250565b6000610525601783610472565b9150610530826104ef565b602082019050919050565b6000602082019050818103600083015261055481610518565b9050919050565b7f5f636f756e74206d757374206265203e3d203100000000000000000000000000600082015250565b6000610591601383610472565b915061059c8261055b565b602082019050919050565b600060208201905081810360008301526105c081610584565b9050919050565b600073ffffffffffffffffffffffffffffffffffffffff82169050919050565b60006105f2826105c7565b9050919050565b610602816105e7565b82525050565b61061181610314565b82525050565b600060808201905061062c60008301876105f9565b6106396020830186610608565b6106466040830185610608565b6106536060830184610608565b95945050505050565b7f546f6f2073686f72742073796d626f6c00000000000000000000000000000000600082015250565b6000610692601083610472565b915061069d8261065c565b602082019050919050565b600060208201905081810360008301526106c181610685565b9050919050565b82818337600083830152505050565b6000601f19601f8301169050919050565b60006106f48385610472565b93506107018385846106c8565b61070a836106d7565b840190509392505050565b600060608201905061072a60008301876105f9565b818103602083015261073d8185876106e8565b905061074c6040830184610608565b9594505050505056fea26469706673582212208d44aa4b837ba080586487556fa28423797920fe3eca7630afcc925614823d9764736f6c63430008110033",
  "immutableReferences": {},
  "source": "// SPDX-License-Identifier: GPL-3.0\r\npragma solidity ^0.8.17;\r\n\r\ninterface IOracle {\r\n    function getPrice(\r\n        uint256 _price\r\n    ) external;\r\n\r\n    function getVRF(\r\n        uint[] calldata _numbers\r\n    ) external;\r\n}\r\n\r\ncontract Oracle {\r\n    event RequestPrice(\r\n        address caller,\r\n        string currencySymbol,\r\n        uint requestTime\r\n    );\r\n\r\n    event RequestVRF(\r\n        address caller,\r\n        uint toNumber,\r\n        uint count,\r\n        uint requestTime\r\n    );\r\n\r\n    bool lock;\r\n    modifier reentrant() {\r\n        require(lock == false, \"Locked\");\r\n        lock = true;\r\n        _;\r\n        lock = false;\r\n    }\r\n\r\n    function requestPrice(string calldata _symbol) reentrant external returns(bool status) {\r\n        require(bytes(_symbol).length >=3, \"Too short symbol\");\r\n\r\n        emit RequestPrice({\r\n            caller: msg.sender,\r\n            currencySymbol: _symbol,\r\n            requestTime: block.timestamp\r\n        });\r\n\r\n        status = true;\r\n    }\r\n\r\n    function requestVRF(\r\n        uint _toNumber, /// Note: 0 To _toNumber\r\n        uint _count\r\n    ) reentrant external returns(bool status) {\r\n        require(_toNumber >= 10, \"_toNumber must be >= 10\");\r\n        require(_count >= 1, \"_count must be >= 1\");\r\n\r\n        emit RequestVRF({\r\n            caller: msg.sender,\r\n            toNumber: _toNumber,\r\n            count: _count,\r\n            requestTime: block.timestamp\r\n        });\r\n\r\n        status = true;\r\n    }\r\n}",
  "sourcePath": "C:\\Users\\PooriaGg\\Desktop\\Oracle_1\\Contracts\\contracts\\Oracle.sol",
  "compiler": {
    "name": "solc",
    "version": "0.8.17+commit.8df45f5f.Emscripten.clang"
  },
  "schemaVersion": "3.4.11",
  "updatedAt": "2023-03-18T06:59:13.688Z",
  "devdoc": {
    "kind": "dev",
    "methods": {},
    "version": 1
  },
  "userdoc": {
    "kind": "user",
    "methods": {},
    "version": 1
  }
}