{
  "contractName": "Test",
  "abi": [
    {
      "inputs": [
        {
          "internalType": "address",
          "name": "_oracle",
          "type": "address"
        }
      ],
      "stateMutability": "nonpayable",
      "type": "constructor"
    },
    {
      "inputs": [
        {
          "internalType": "uint256",
          "name": "",
          "type": "uint256"
        }
      ],
      "name": "numbers",
      "outputs": [
        {
          "internalType": "uint256",
          "name": "",
          "type": "uint256"
        }
      ],
      "stateMutability": "view",
      "type": "function"
    },
    {
      "inputs": [],
      "name": "oracle",
      "outputs": [
        {
          "internalType": "address",
          "name": "",
          "type": "address"
        }
      ],
      "stateMutability": "view",
      "type": "function"
    },
    {
      "inputs": [],
      "name": "owner",
      "outputs": [
        {
          "internalType": "address",
          "name": "",
          "type": "address"
        }
      ],
      "stateMutability": "view",
      "type": "function"
    },
    {
      "inputs": [],
      "name": "symbolPrice",
      "outputs": [
        {
          "internalType": "uint256",
          "name": "",
          "type": "uint256"
        }
      ],
      "stateMutability": "view",
      "type": "function"
    },
    {
      "inputs": [
        {
          "internalType": "string",
          "name": "_symbol",
          "type": "string"
        }
      ],
      "name": "sendPriceRequest",
      "outputs": [],
      "stateMutability": "nonpayable",
      "type": "function"
    },
    {
      "inputs": [
        {
          "internalType": "uint256",
          "name": "_toNumber",
          "type": "uint256"
        },
        {
          "internalType": "uint256",
          "name": "_count",
          "type": "uint256"
        }
      ],
      "name": "sendVRFRequest",
      "outputs": [],
      "stateMutability": "nonpayable",
      "type": "function"
    },
    {
      "inputs": [
        {
          "internalType": "uint256",
          "name": "_price",
          "type": "uint256"
        }
      ],
      "name": "getPrice",
      "outputs": [],
      "stateMutability": "nonpayable",
      "type": "function"
    },
    {
      "inputs": [
        {
          "internalType": "uint256[]",
          "name": "_numbers",
          "type": "uint256[]"
        }
      ],
      "name": "getVRF",
      "outputs": [],
      "stateMutability": "nonpayable",
      "type": "function"
    }
  ],
  "bytecode": "0x60c06040523373ffffffffffffffffffffffffffffffffffffffff1660a09073ffffffffffffffffffffffffffffffffffffffff168152503480156200004457600080fd5b5060405162000f9738038062000f9783398181016040528101906200006a919062000181565b600073ffffffffffffffffffffffffffffffffffffffff168173ffffffffffffffffffffffffffffffffffffffff1603620000dc576040517f08c379a0000000000000000000000000000000000000000000000000000000008152600401620000d39062000214565b60405180910390fd5b8073ffffffffffffffffffffffffffffffffffffffff1660808173ffffffffffffffffffffffffffffffffffffffff16815250505062000236565b600080fd5b600073ffffffffffffffffffffffffffffffffffffffff82169050919050565b600062000149826200011c565b9050919050565b6200015b816200013c565b81146200016757600080fd5b50565b6000815190506200017b8162000150565b92915050565b6000602082840312156200019a576200019962000117565b5b6000620001aa848285016200016a565b91505092915050565b600082825260208201905092915050565b7f496e76616c6964206f7261636c65206164647265737300000000000000000000600082015250565b6000620001fc601683620001b3565b91506200020982620001c4565b602082019050919050565b600060208201905081810360008301526200022f81620001ed565b9050919050565b60805160a051610d1f62000278600039600081816101890152818161040e015261043201526000818161021a015281816103ea01526104c30152610d1f6000f3fe608060405234801561001057600080fd5b50600436106100885760003560e01c8063bf03f0761161005b578063bf03f07614610101578063d0eb687d1461011d578063d39fa2331461013b578063e75722301461016b57610088565b806352d5135a1461008d57806367df8bcb146100a95780637dc0d1d0146100c55780638da5cb5b146100e3575b600080fd5b6100a760048036038101906100a29190610788565b610187565b005b6100c360048036038101906100be919061082b565b6103d2565b005b6100cd6103e8565b6040516100da91906108b9565b60405180910390f35b6100eb61040c565b6040516100f891906108b9565b60405180910390f35b61011b6004803603810190610116919061090a565b610430565b005b61012561067b565b6040516101329190610959565b60405180910390f35b61015560048036038101906101509190610974565b610681565b6040516101629190610959565b60405180910390f35b61018560048036038101906101809190610974565b6106a5565b005b7f000000000000000000000000000000000000000000000000000000000000000073ffffffffffffffffffffffffffffffffffffffff163373ffffffffffffffffffffffffffffffffffffffff1614610215576040517f08c379a000000000000000000000000000000000000000000000000000000000815260040161020c906109fe565b60405180910390fd5b6000807f000000000000000000000000000000000000000000000000000000000000000073ffffffffffffffffffffffffffffffffffffffff168484604051602401610262929190610a6b565b6040516020818303038152906040527fd4fe6bd0000000000000000000000000000000000000000000000000000000007bffffffffffffffffffffffffffffffffffffffffffffffffffffffff19166020820180517bffffffffffffffffffffffffffffffffffffffffffffffffffffffff83818316178352505050506040516102ec9190610b00565b6000604051808303816000865af19150503d8060008114610329576040519150601f19603f3d011682016040523d82523d6000602084013e61032e565b606091505b509150915081610373576040517f08c379a000000000000000000000000000000000000000000000000000000000815260040161036a90610b63565b60405180910390fd5b6000818060200190518101906103899190610bbb565b9050806103cb576040517f08c379a00000000000000000000000000000000000000000000000000000000081526004016103c290610c34565b60405180910390fd5b5050505050565b8181600191906103e39291906106af565b505050565b7f000000000000000000000000000000000000000000000000000000000000000081565b7f000000000000000000000000000000000000000000000000000000000000000081565b7f000000000000000000000000000000000000000000000000000000000000000073ffffffffffffffffffffffffffffffffffffffff163373ffffffffffffffffffffffffffffffffffffffff16146104be576040517f08c379a00000000000000000000000000000000000000000000000000000000081526004016104b5906109fe565b60405180910390fd5b6000807f000000000000000000000000000000000000000000000000000000000000000073ffffffffffffffffffffffffffffffffffffffff16848460405160240161050b929190610c54565b6040516020818303038152906040527f2c4008ea000000000000000000000000000000000000000000000000000000007bffffffffffffffffffffffffffffffffffffffffffffffffffffffff19166020820180517bffffffffffffffffffffffffffffffffffffffffffffffffffffffff83818316178352505050506040516105959190610b00565b6000604051808303816000865af19150503d80600081146105d2576040519150601f19603f3d011682016040523d82523d6000602084013e6105d7565b606091505b50915091508161061c576040517f08c379a000000000000000000000000000000000000000000000000000000000815260040161061390610cc9565b60405180910390fd5b6000818060200190518101906106329190610bbb565b905080610674576040517f08c379a000000000000000000000000000000000000000000000000000000000815260040161066b90610c34565b60405180910390fd5b5050505050565b60005481565b6001818154811061069157600080fd5b906000526020600020016000915090505481565b8060008190555050565b8280548282559060005260206000209081019282156106eb579160200282015b828111156106ea5782358255916020019190600101906106cf565b5b5090506106f891906106fc565b5090565b5b808211156107155760008160009055506001016106fd565b5090565b600080fd5b600080fd5b600080fd5b600080fd5b600080fd5b60008083601f84011261074857610747610723565b5b8235905067ffffffffffffffff81111561076557610764610728565b5b6020830191508360018202830111156107815761078061072d565b5b9250929050565b6000806020838503121561079f5761079e610719565b5b600083013567ffffffffffffffff8111156107bd576107bc61071e565b5b6107c985828601610732565b92509250509250929050565b60008083601f8401126107eb576107ea610723565b5b8235905067ffffffffffffffff81111561080857610807610728565b5b6020830191508360208202830111156108245761082361072d565b5b9250929050565b6000806020838503121561084257610841610719565b5b600083013567ffffffffffffffff8111156108605761085f61071e565b5b61086c858286016107d5565b92509250509250929050565b600073ffffffffffffffffffffffffffffffffffffffff82169050919050565b60006108a382610878565b9050919050565b6108b381610898565b82525050565b60006020820190506108ce60008301846108aa565b92915050565b6000819050919050565b6108e7816108d4565b81146108f257600080fd5b50565b600081359050610904816108de565b92915050565b6000806040838503121561092157610920610719565b5b600061092f858286016108f5565b9250506020610940858286016108f5565b9150509250929050565b610953816108d4565b82525050565b600060208201905061096e600083018461094a565b92915050565b60006020828403121561098a57610989610719565b5b6000610998848285016108f5565b91505092915050565b600082825260208201905092915050565b7f4f6e6c79206f776e657200000000000000000000000000000000000000000000600082015250565b60006109e8600a836109a1565b91506109f3826109b2565b602082019050919050565b60006020820190508181036000830152610a17816109db565b9050919050565b82818337600083830152505050565b6000601f19601f8301169050919050565b6000610a4a83856109a1565b9350610a57838584610a1e565b610a6083610a2d565b840190509392505050565b60006020820190508181036000830152610a86818486610a3e565b90509392505050565b600081519050919050565b600081905092915050565b60005b83811015610ac3578082015181840152602081019050610aa8565b60008484015250505050565b6000610ada82610a8f565b610ae48185610a9a565b9350610af4818560208601610aa5565b80840191505092915050565b6000610b0c8284610acf565b915081905092915050565b7f45787465726e616c2063616c6c206661696c6564000000000000000000000000600082015250565b6000610b4d6014836109a1565b9150610b5882610b17565b602082019050919050565b60006020820190508181036000830152610b7c81610b40565b9050919050565b60008115159050919050565b610b9881610b83565b8114610ba357600080fd5b50565b600081519050610bb581610b8f565b92915050565b600060208284031215610bd157610bd0610719565b5b6000610bdf84828501610ba6565b91505092915050565b7f52657175657374206661696c6564000000000000000000000000000000000000600082015250565b6000610c1e600e836109a1565b9150610c2982610be8565b602082019050919050565b60006020820190508181036000830152610c4d81610c11565b9050919050565b6000604082019050610c69600083018561094a565b610c76602083018461094a565b9392505050565b7f45787465726e616c2063616c6c206661696c6564210000000000000000000000600082015250565b6000610cb36015836109a1565b9150610cbe82610c7d565b602082019050919050565b60006020820190508181036000830152610ce281610ca6565b905091905056fea26469706673582212209aa9f1edef12e8e3096c5db9e27f8d413e16a6ea7f6f90cb4ee65a41b4e8595864736f6c63430008110033",
  "immutableReferences": {
    "177": [
      {
        "length": 32,
        "start": 538
      },
      {
        "length": 32,
        "start": 1002
      },
      {
        "length": 32,
        "start": 1219
      }
    ],
    "181": [
      {
        "length": 32,
        "start": 393
      },
      {
        "length": 32,
        "start": 1038
      },
      {
        "length": 32,
        "start": 1074
      }
    ]
  },
  "source": "// SPDX-License-Identifier: GPL-3.0\npragma solidity ^0.8.17;\n\ninterface IOracle {\n    function getPrice(\n      uint256 _price\n    ) external;\n\n    function getVRF(\n        uint[] calldata _numbers\n    ) external;\n}\n\ncontract Test is IOracle {\n  address public immutable oracle;\n  address public immutable owner = msg.sender;\n\n  uint256 public symbolPrice;\n  uint256[] public numbers;\n\n  constructor(address _oracle) {\n    require(address(_oracle) != address(0), \"Invalid oracle address\");\n\n    oracle = _oracle;\n  }\n\n  function sendPriceRequest(string calldata _symbol) external {\n    require(msg.sender == owner, \"Only owner\");\n\n    (bool res, bytes memory data) = oracle.call(\n      abi.encodeWithSignature(\"requestPrice(string)\", _symbol)\n    );\n    require(res, \"External call failed\");\n\n    bool reqStatus = abi.decode(data, (bool));\n    require(reqStatus, \"Request failed\");\n  }\n\n  function sendVRFRequest(\n    uint _toNumber,\n    uint _count\n  ) external {\n    require(msg.sender == owner, \"Only owner\");\n    \n    (bool res, bytes memory data) = oracle.call(\n      abi.encodeWithSignature(\"requestVRF(uint256,uint256)\", _toNumber, _count)\n    );\n    require(res, \"External call failed!\");\n\n    bool reqStatus = abi.decode(data, (bool));\n    require(reqStatus, \"Request failed\");\n  }\n\n  function getPrice(uint256 _price) external {\n    symbolPrice = _price;\n  }\n\n  function getVRF(uint[] calldata _numbers) external {\n    numbers = _numbers;\n  }\n}",
  "sourcePath": "C:\\Users\\PooriaGg\\Desktop\\Oracle_1\\Contracts\\contracts\\Test.sol",
  "compiler": {
    "name": "solc",
    "version": "0.8.17+commit.8df45f5f.Emscripten.clang"
  },
  "schemaVersion": "3.4.11",
  "updatedAt": "2023-03-18T06:59:13.693Z",
  "devdoc": {
    "kind": "dev",
    "methods": {},
    "version": 1
  },
  "userdoc": {
    "kind": "user",
    "methods": {},
    "version": 1
  }
}